:10122700467265713A25352E3166204D487A00544D
:05123700656D703A0036
:1012760005223050701680044F00018AEC02378A2E
:01128600EC7B
:0312C300DFFE2229
:10121200AE07AF061EEF600C7FF51212C37FF51208
:0512220012C380EE2262
:0B11E300D2B17F041211EED2B27F04E3
:0E11EE00EFD394007480948040031F80F3229E
:101288001211E3C2B17F041211EEC2B27F0402113F
:01129800EE67
:10125000C2B27F041211EEC2B11211E5D2B17F0405
:031260000211EE8A
:10126300C2B11211E5C2B27F041211EED2B17F04F2
:031273000211EE77
:101299001211E3A2B192007F041211EEC2B2A200B0
:0112A9002222
:02114B00AE07ED
:10114D007D08EDD39400748094804015EE3392B1F8
:10115D001211E5C2B27F041211EEEE25E0FE1D80E4
:01116D00E1A0
:01116E00225E
:10118D00EFD39400748094804012E4FEEEC394FA81
:0C119D007480948050030E80F31F80E4E7
:0111A9002223
:1010AD001212887FC012114B121299401BE4FCECF6
:1010BD00C3940574809480500F74222CF8E6FF12AF
:0B10CD00114B1212630C80E70212505E
:100FB400E55224E1FFE43551FEE43550FDE4354FBC
:100FC400FCE41202A17B6F7A1279037841120204C5
:100FD4001202DF8E378F38E537F5228F23752470A0
:090FE4007525167526800210AD7A
:10116F00EF1FAA0670011E4A6013E4FDEDC394FA47
:0D117F007480948050EA000000000D80EFA5
:01118C002240
:10123C00C2A6D2A5D2A700000000E580339200C25E
:03124C00A7A20056
:01124F00227C
:1011C70012123C40FBC2A6C2A5C2A700008F800036
:0C11D700000000D2A700000000C2A72208
:100FED0012123C40FBC2A6C2A5C2A700008F800012
:100FFD00000000D2A700000000C2A7EF540FC4F8F4
:10100D00540FC868FF8F8000000000D2A7000000B9
:04101D0000C2A72244
:100F780012123C40FBD2A6C2A5C2A78F8000000077
:100F880000D2A700000000C2A7D2A6C2A5C2A7002F
:100F9800000000EF540FC4F8540FC868FF8F80009A
:0C0FA800000000D2A700000000C2A72239
:100F24007F387E001211C77F0112116F7F387E0057
:100F34001211C77F0112116F7F287E001211C77F23
:100F44000112116F7F287E00120FED7F0112116FC5
:100F54007F0C7E00120FED7F0112116F7F027E0065
:100F6400120FED7F0112116F7F017E00120FED7FD2
:040F74000102116FF6
:0912AA00EF4480FF7E00020FED0D
:0610FF008B538A54895551
:10110500E4FDFF1212AAAB53AA54A9558D8275832B
:0F1115000012051BFF60087E00120F780D80E7A7
:0111240022A8
:100ECD00E47B64FAF9F8AF52AE51AD50AC4F120558
:010EDD00CC48
:100EDE00E4F5537557FF755812755927AD07AC06D3
:100EEE001202A6E4FBFA792078411202048F5D8E7D
:100EFE005C8D5B8C5A7B007A00792712084D7F40FF
:100F0E001212AA74272553F8E6FF60097E00120F0D
:050F1E0078055380EE90
:010F230022AB
:10102100120F24E4FF1212AA7BFF7A1279361210F2
:10103100FF7F411212AA120FB41210ADE47B64FAC1
:10104100F9F8AF52AE51AD50AC4F1205CC020EDEE5
:1011AA00EFD394007480948040127E6EEED3940044
:0C11BA007480948040031E80F31F80E4CA
:0111C6002206
:10112500C2B77D46AF051DEF70FAD2B7FD30B713D4
:101135007F011211AA0DEDD394057480948040EDC2
:051145007F00227F0184
:01114A002282
:0A1051001211257F011211AA7FCCB5
:10105B00E4FDEDC39408748094805017C2B7EF136E
:10106B0092B77E06AC061EEC70FAD2B7EFC313FF35
:03107B000D80DF06
:01107E00224F
:10107F007D08EDD3940074809480401FC2B7D2B71F
:10108F00A2B7E433C43333335480FCEEC3134CFEA6
:0D109F007F04AC071FEC70FA1D80D7AF0670
:0110AC002221
:0812B3001210517F4402105B90
:0812BB001210517FBE02105B0E
:1011FC00E4FFFE1212B31212BB12107FAB071210D7
:05120C007FEFFEEBFF87
:0112110022BA
:100D37001211FCAB07AA06C3EA64809480501075B1
:100D4700492DEB1B70011A6303FF6302FF800375D4
:100D5700492BAD03AC02EC1202A68F568E558D546B
:100D67008C53E4FFFE7DC87C40AB56AA55A954A816
:100D7700531200FBE4FBFAF9783F12000A1202DF74
:100D8700AA06AB077C037DE8AF03AE0212055AEF54
:100D97002430F54A7C037DE8AF03AE0212055A7E84
:100DA700007F64CFCDCFCECCCE12055AEF2430F5DD
:100DB7004B7C007D64AF03AE0212055A7E007F0AAA
:100DC700CFCDCFCECCCE12055AEF2430F54D754C92
:100DD7002EAE02AF037C007D0A12055AED2430F5D2
:010DE7004EBD
:010DE80022E8
:100C6000121021120D37E4FF1212AA78397C007D90
:100C7000007BFF7A12793612077F75560075570090
:100C8000755849120E7578397C007D0012077F7BFC
:100C9000007A0079391210FF2090437F0A12118DDB
:100CA0002090C0E5522464F552E43551F551E43505
:100CB00050F550E4354FF54F7FD47EA77D017C0081
:100CC000AB52AA51A950F8D312066C400C7552F8D9
:100CD000755124755001754F00120FB4804B20914F
:100CE0004E7F0A12118D209140C3E5529464F55253
:100CF000E5519400F551E5509400F550E54F94000E
:100D0000F54F7FF87E247D017C00AB52AA51A9509B
:100D1000F8C312066C500C7552D47551A77550016A
:100D2000754F00120FB4120ECD120ECD020C637F60
:070D3000641211AA020C631A
:1000030002034BE86480F8E933E83360110460F0DD
:10001300ED33EC337009E8FCE9FDEAFEEBFF220463
:1000230060DED3EB9FEA9EE99DE8C2E78CF0C2F75E
:1000330095F0400CE8CCF8E9CDF9EACEFAEBCFFB2A
:1000430012031685D0F05804700320D5B3E804706A
:10005300075002B2D502035592D5EC0460F7E4CC05
:10006300C0E0C398F8603B94186008400DD0E0FBF3
:1000730002032DE4FBFAC9FC8028E830E406E4C956
:10008300FBE4CAFCE830E305E4C9CACBFCE8540747
:100093006010F8C3E913F9EA13FAEB13FBEC13FC52
:1000A300D8F130F52FC3E49CFCEF9BFFEE9AFEEDF5
:1000B30099FDD0E0FBEF4E4D4C701222DB0302039F
:1000C30052EC2CFCEF33FFEE33FEED33FDED30E766
:1000D300EB02032DEF2BFFEE3AFEED39FDD0E0FBF3
:1000E30050130BBB0003020355ED13FDEE13FEEF9C
:0800F30013FFEC13FC02032DC6
:1000FB00EC4D6011E8497017ED33EC3304600DE4FF
:10010B00FCFFFEFD22E933E8330470F802034B12C7
:10011B00031658046009E4CC2481500628500902C8
:10012B000355284003020352C0E0EB4A7044B980E8
:10013B0006D0E0FB020341EF4E701CBD8008EBFFC5
:10014B00EAFEE9FD80EBE98DF0A4FEE5F00201E4A7
:10015B00E9CDF9EAFEEBFFEF89F0A4FCE5F0CE89DF
:10016B00F0A42EFFE435F0CD89F0A42DFEE435F09C
:10017B008067EF4E7005BD80D780C3EF8BF0A4ACCA
:10018B00F0EE8BF0A42CFCE435F0F8EF8AF0A42C05
:10019B00E5F038FCE433CB8DF0A42CFCE5F03BF818
:1001AB00EE8AF0A42CFCE5F038F8E433CF89F0A408
:1001BB002CFCE5F038CF3400CE89F0A42FFFE5F00E
:1001CB003EFEE433C98DF0A42EFEE5F039CD8AF066
:1001DB00A42FFFE5F03EFEE43DFD33D0E0FB5007DE
:1001EB000BBB000F020355EC2CFCEF33FFEE33FE81
:0601FB00ED33FD02032DAF
:10020100020355EC5D046005E85904700302034BD9
:10021100120316580460F6EC4860F2EC7004FDFE1F
:10022100FF22C860DB2481C85009C39860025006D0
:100231000203529850CAF582E9294B4A7005AB82F4
:1002410002034175F0007C1A7880C3EF9BEE9AEDB2
:1002510099400DC3EF9BFFEE9AFEED99FDE842F048
:10026100DC23ACF0D0E0FFD0E0FED0E0FDAB82209B
:10027100E7101BEB60BAEC2CFCEF33FFEE33FEED25
:1002810033FD02032DE803F830E705C0F075F000F7
:10029100EF2FFFEE33FEED33FD40B830E7C280AA09
:1002A10075F020800E75F010800575F0087D007ED8
:1002B100007F003392D530D50312065EEC33401037
:1002C100EF33FFEE33FEED33FDEC33FCD5F0ED22E1
:0E02D100E5F0247EA2D513CC92E7CDCEFF221D
:1002DF00EDD2E7CD33EC3392D524814006E4FFFE17
:1002EF00FDFC22FCE4CFCECDCC24E0501174FF8076
:1002FF00EDC3CC13CCCD13CDCE13CECF13CF047013
:07030F00F030D5DE02065EAE
:1007F100E56B2457F8E6056B2278543007027857E9
:10080100E475F00112067D0205022000EB7F2ED275
:10081100008018EF540F2490D43440D4FF30040BDF
:10082100EF24BFB41A0050032461FFE56C60021588
:100831006C056FE56F7002056E30070D7854E47535
:10084100F00112067DEF0205480210D87403D207A9
:100851008003E4C207F56B8B548A558956E4F56C25
:10086100F56EF56FE56C60077F2012082C80F57539
:100871006DFFC201C200C202C203C205C206C208A4
:100881001207FAFF700D3007057F0012083DAF6FA8
:10089100AE6E22B4255FC2D5C2041207FAFF24D07E
:1008A100B40A00501A75F00A786C30D50508B6FF05
:1008B1000106C6A426F620D5047002D20380D924ED
:1008C100CFB41A00EF5004C2E5D204020B2AD201C0
:1008D10080C6D20080C0D20280BCD2D580BAD205F7
:1008E10080B47F2012082C2002077401B56C0040EF
:1008F100F11207F1FF12082C020865D208D2068016
:10090100951207F1FB1207F1FA1207F1F94A4B7040
:100911000679217A0C7BFF20022EE56C602A7E008D
:100921008E8275830012051B60060EEE656D70F0F8
:10093100C2D5EBC0E0EAC0E0E9C0E0EE120B8AD01C
:10094100E0F9D0E0FAD0E0FB120502FF60AAEBC0AB
:10095100E0EAC0E0E9C0E012082CD0E02401F9D0BF
:10096100E03400FAD0E0FBE56D0460DCD56DD980A0
:1009710087D20280A2120B6D60F7E56D700104123F
:100981000360A96D600DE56D600914F56D120C141D
:10099100EF60F3EA30E702F404C3995077EAF425F3
:1009A1006D0430E701E404F56D800D120B6D60C13B
:1009B100EA056D256D120360EA786AF630E701E415
:1009C100256D04D56D0420050114120B8AE4C0E0E5
:1009D100120C14786AE6601320E70714F612081463
:1009E100802204F6D0E014C0E07F00120814E56D07
:1009F100600712080B156D800B30050312080BD030
:100A0100E0020865D0E00480C5120B6D60A0E56DC1
:100A110004120360786AEAF6E56D200502600104BC
:050A21002404120B8A01
:100A260074FF04C0E0120C14120814E56D200502D0
:100A3600600312080BD0E0B56DE87F4512081E78FA
:100A46006AE67F2B30E7047F2DF404C0E012082C01
:100A5600D0E075F00A84C0F0120815D0E01208152F
:100A6600020865791080027908C206C2088008D299
:100A7600D5790A8004790AC2D5E56D047002F56D50
:100A8600E4FAFDFEFF1207F1FC7B082001131207B2
:100A9600F1FD7B1030000A1207F1FE1207F1FF7B11
:100AA60020EC3382D592D55013C3E43000069FFF65
:100AB600E49EFEE42001039DFDE49CFCE4CBF8C229
:100AC60001EC700CCFCECDCCE824F8F870F380178B
:100AD600C3EF33FFEE33FEED33FDEC33FCEB33FBBC
:100AE600994002FB0FD8E9EB300105F8D0E0C44885
:100AF600B201C0E00AEC4D4E4F78207B0070C2EA8E
:100B0600B56D0040BCC0E0120B8CD0F0D0E02001E7
:100B160004C4C0E0C4B201C0F0120815D0F0D5F08C
:100B2600EB02086512068D0902530A695808D34C70
:100B360008CF420A6D4F0A75440A754908E8430A08
:100B46007B5509AC460A0A450976470C415008D739
:100B56002D08DB2E08FE2B08DF2308FC200C2A2A92
:100B6600089748000008F6E56DB4FF03756D061298
:100B760007F1FC1207F1FD1207F1FE1207F1FF78EB
:100B86006302038F790AA2D5200314300509B91030
:100B9600020404B9080104A2D5200602500104206B
:100BA60002689202B56C005034C0E07F2030031911
:100BB6007F30A20272067205500F120BE3C202C208
:100BC60006C205C2087F30800F300503E9C0E01277
:100BD600082C300503D0E0F9D0E0B56CCC30051711
:100BE6007F30B9100C12082C7F583004077F7880AC
:100BF60003B9080312082C3002057F2D02082C7F4A
:100C0600202008F87F2B2006F322920280CF7F0057
:100C1600B4070050052463F8E6FF22286E756C6C55
:100C26002900D2011207F13001F8C201786C30D5E3
:100C36000108F60208972D504349581207F124037C
:100C4600B405004001E4900C3C9312081D743A125E
:0A0C5600081DD203756C04020A6940
:10031600E9D2E7C933E833F892D5EDD2E7CD33EC2D
:0703260033FC5002B2D522A6
:10032D00EC30E7100FBF000C0EBE00080DBD000431
:10033D000BEB6014A2D5EB13FCED92E7FD2274FFDD
:10034D00FCFDFEFF22E480F8A2D574FF13FC7D8036
:03035D00E480EF4A
:10036000F920E72824F950037907E4F42402FB1864
:10037000DBFDE624FB5014E9600DE4F618E604F614
:0F038000B40A08E4F6D9F57401F60A22C2D522B0
:10038F00ED33EC3392D5FA602AB4FF33EDC2E77B3D
:10039F00FF60067A0379B4E4227A0379BD20D5048D
:1003AF007A0379B8224E614E002B494E46002D49F3
:1003BF004E4600E47A08F608DAFC7B00740722E860
:1003CF00C0E0ECC0E0EDC0E0EEC0E0EFC0E0EA75E9
:1003DF00F010A4CAABF075F04DA42BFBE435F0FC84
:1003EF00EA2410FAEB34C5FBEC34D9FCEDC2E7FF7D
:1003FF0075F056A4F42411C5F0F434C58FF0A42A77
:10040F00E5F03BE43CF620E7141204C2D0E0FFD045
:10041F00E0FED0E0FDD0E0FC1202048014F40412E0
:10042F0004C2D0E0FFD0E0FED0E0FDD0E0FC12002F
:10043F00FBD0E0F8E6FAEDD2E7CD33EC332482FBC4
:10044F00E4C3CF33CFCE33CECD33CD33DBF37B0706
:10045F0075F00A846004F6081B0AE5F0F6088FF0C1
:10046F00740AA4FFACF08EF0740AA42CFEACF0500A
:10047F00010C8DF0740AA42CFDE435F0F608DBDED8
:03048F00740722CD
:100492003F8000004120000042C80000447A000072
:1004A200461C400047C35000497424004B189680F4
:1004B2004CBEBC205A0E1BCA6753C21C749DC5AEEB
:1004C200FB60065407601C23231204F0EB543860CF
:1004D200091204DC1204EB1200FBECF8EDF9EEFA5F
:1004E200EFCB22EB1204EB80F1543803241C90046E
:1004F20092FE93FC0EEE93FD0EEE930ECE93FF2230
:03000000020DE905
:0C0DE900787FE4F6D8FD75816F020E30B3
:10050200BB010689828A83E0225002E722BBFE02F7
:09051200E32289828A83E493222A
:10051B00BB010CE58229F582E5833AF583E0225095
:10052B0006E92582F8E622BBFE06E92582F8E222DF
:0D053B00E58229F582E5833AF583E49322F9
:10054800BB010689828A83F0225002F722BBFE0192
:02055800F3228C
:10055A00C2D5EC30E709B2D5E4C39DFDE49CFCEEBC
:10056A0030E715B2D5E4C39FFFE49EFE12079CC391
:10057A00E49DFDE49CFC800312079C30D507C3E48C
:06058A009FFFE49EFE222B
:1005900075F008758200EF2FFFEE33FECD33CDCC22
:1005A00033CCC58233C5829BED9AEC99E5829840A5
:1005B0000CF582EE9BFEED9AFDEC99FC0FD5F0D682
:1005C000E4CEFBE4CDFAE4CCF9A88222B800C1B9AC
:1005D0000059BA002DEC8BF084CFCECDFCE5F0CBEA
:1005E000F97818EF2FFFEE33FEED33FDEC33FCEB23
:1005F00033FB10D703994004EB99FB0FD8E5E4F9DE
:10060000FA227818EF2FFFEE33FEED33FDEC33FCCA
:10061000C933C910D7059BE99A4007EC9BFCE99ABE
:10062000F90FD8E0E4C9FAE4CCFB2275F010EF2F03
:10063000FFEE33FEED33FDCC33CCC833C810D70703
:100640009BEC9AE899400AED9BFDEC9AFCE899F83E
:0E0650000FD5F0DAE4CDFBE4CCFAE4C8F922D1
:0E065E00C3E49FFFE49EFEE49DFDE49CFC22AD
:10066C00EB9FF5F0EA9E42F0E99D42F0E89C45F0E4
:01067C00225B
:10067D00FAE6FB0808E6F925F0F618E6CA3AF6227E
:10068D00D083D082F8E4937012740193700DA3A3FC
:10069D0093F8740193F5828883E473740293686010
:0606AD00EFA3A3A380DF10
:1010D800EFB40A07740D1210E3740A309811A89936
:1010E800B8130CC2983098FDA899C298B811F63078
:0710F80099FDC299F5992250
:100E75008B538A5489558B598A5A895BAB530555CF
:100E8500E555AA547002055414F912050270ED7463
:100E9500FF2555F55574FF3554F554AB560558E502
:100EA50058AA577002055714F9120502FFAB5305EE
:100EB50055E555AA547002055414F9EF120548700A
:080EC500DAAB59AA5AA95B221D
:1006B300E709F60870FA8046E709F20870FA803E07
:1006C30088828C83E709F0A370FA807EE309F60839
:1006D30070FA8076E309F20870FA806E88828C8360
:1006E300E309F0A370FA806289828A83E0A3F608A3
:1006F30070FA805689828A83E0A3F20870FA804AEE
:1007030080D280FA80C680D4806580F280318010E8
:1007130080A680EA809A80A880DA80E280CA80314D
:1007230089828A83ECFAE493A3C8C582C8CCC583C3
:10073300CCF0A3C8C582C8CCC583CC70E9800D8931
:10074300828A83E493A3F60870F9ECFAA9F0EDFB2F
:100753002289828A83ECFAE0A3C8C582C8CCC58308
:10076300CCF0A3C8C582C8CCC583CC70EA80DD8930
:10077300828A83E493A3F20870F980CE88F0ED2493
:1007830002B4040050C4F582EB2402B4040050BA4E
:0907930023234582239007037320
:100DF500020C60E493A3F8E493A34003F68001F2A8
:100E050008DFF48029E493A3F85407240CC8C333FE
:100E1500C4540F4420C8834004F456800146F6DFCD
:100E2500E4800B0102040810204080901276E47ED5
:100E3500019360BCA3FF543F30E509541FFEE493C2
:100E4500A360010ECF54C025E060A840B8E493A389
:100E5500FAE493A3F8E493A3C8C582C8CAC583CAB4
:100E6500F0A3C8C582C8CAC583CADFE9DEE780BE6C
:011287000066
:10079C00BC000BBE0029EF8DF084FFADF022E4CC41
:1007AC00F875F008EF2FFFEE33FEEC33FCEE9DEC0A
:1007BC00984005FCEE9DFE0FD5F0E9E4CEFD22ED50
:1007CC00F8F5F0EE8420D21CFEADF075F008EF2F9A
:1007DC00FFED33FD4007985006D5F0F222C398FD8B
:0507EC000FD5F0EA2228
:00000001FF
